{
  "contractName": "Patients",
  "abi": [
    {
      "inputs": [],
      "name": "doctorCount",
      "outputs": [
        {
          "internalType": "uint256",
          "name": "",
          "type": "uint256"
        }
      ],
      "stateMutability": "view",
      "type": "function",
      "constant": true
    },
    {
      "inputs": [
        {
          "internalType": "uint256",
          "name": "",
          "type": "uint256"
        }
      ],
      "name": "doctors",
      "outputs": [
        {
          "internalType": "string",
          "name": "name",
          "type": "string"
        },
        {
          "internalType": "string",
          "name": "id",
          "type": "string"
        },
        {
          "internalType": "uint256",
          "name": "age",
          "type": "uint256"
        },
        {
          "internalType": "uint256",
          "name": "weight",
          "type": "uint256"
        },
        {
          "internalType": "uint256",
          "name": "height",
          "type": "uint256"
        }
      ],
      "stateMutability": "view",
      "type": "function",
      "constant": true
    },
    {
      "inputs": [],
      "name": "patientCount",
      "outputs": [
        {
          "internalType": "uint256",
          "name": "",
          "type": "uint256"
        }
      ],
      "stateMutability": "view",
      "type": "function",
      "constant": true
    },
    {
      "inputs": [
        {
          "internalType": "uint256",
          "name": "",
          "type": "uint256"
        }
      ],
      "name": "patients",
      "outputs": [
        {
          "internalType": "string",
          "name": "id",
          "type": "string"
        },
        {
          "internalType": "string",
          "name": "name",
          "type": "string"
        },
        {
          "internalType": "uint256",
          "name": "age",
          "type": "uint256"
        },
        {
          "internalType": "uint256",
          "name": "weight",
          "type": "uint256"
        },
        {
          "internalType": "uint256",
          "name": "height",
          "type": "uint256"
        }
      ],
      "stateMutability": "view",
      "type": "function",
      "constant": true
    },
    {
      "inputs": [
        {
          "internalType": "uint256",
          "name": "",
          "type": "uint256"
        }
      ],
      "name": "surgeries",
      "outputs": [
        {
          "internalType": "string",
          "name": "id",
          "type": "string"
        },
        {
          "internalType": "string",
          "name": "patientId",
          "type": "string"
        },
        {
          "internalType": "string",
          "name": "doctorId",
          "type": "string"
        },
        {
          "internalType": "string",
          "name": "description",
          "type": "string"
        }
      ],
      "stateMutability": "view",
      "type": "function",
      "constant": true
    },
    {
      "inputs": [],
      "name": "surgeryCount",
      "outputs": [
        {
          "internalType": "uint256",
          "name": "",
          "type": "uint256"
        }
      ],
      "stateMutability": "view",
      "type": "function",
      "constant": true
    },
    {
      "inputs": [
        {
          "internalType": "string",
          "name": "_id",
          "type": "string"
        },
        {
          "internalType": "string",
          "name": "_name",
          "type": "string"
        },
        {
          "internalType": "uint256",
          "name": "_age",
          "type": "uint256"
        },
        {
          "internalType": "uint256",
          "name": "_weight",
          "type": "uint256"
        },
        {
          "internalType": "uint256",
          "name": "_height",
          "type": "uint256"
        }
      ],
      "name": "addDoctor",
      "outputs": [],
      "stateMutability": "nonpayable",
      "type": "function"
    },
    {
      "inputs": [],
      "name": "getDoctors",
      "outputs": [
        {
          "components": [
            {
              "internalType": "string",
              "name": "name",
              "type": "string"
            },
            {
              "internalType": "string",
              "name": "id",
              "type": "string"
            },
            {
              "internalType": "uint256",
              "name": "age",
              "type": "uint256"
            },
            {
              "internalType": "uint256",
              "name": "weight",
              "type": "uint256"
            },
            {
              "internalType": "uint256",
              "name": "height",
              "type": "uint256"
            },
            {
              "components": [
                {
                  "internalType": "string",
                  "name": "id",
                  "type": "string"
                },
                {
                  "internalType": "string",
                  "name": "name",
                  "type": "string"
                },
                {
                  "internalType": "uint256",
                  "name": "age",
                  "type": "uint256"
                },
                {
                  "internalType": "uint256",
                  "name": "weight",
                  "type": "uint256"
                },
                {
                  "internalType": "uint256",
                  "name": "height",
                  "type": "uint256"
                }
              ],
              "internalType": "struct Patients.Patient[]",
              "name": "patients",
              "type": "tuple[]"
            }
          ],
          "internalType": "struct Patients.Doctor[]",
          "name": "",
          "type": "tuple[]"
        }
      ],
      "stateMutability": "view",
      "type": "function",
      "constant": true
    },
    {
      "inputs": [
        {
          "internalType": "string",
          "name": "_surgeryid",
          "type": "string"
        },
        {
          "internalType": "string",
          "name": "_doctorid",
          "type": "string"
        },
        {
          "internalType": "string",
          "name": "_patientid",
          "type": "string"
        },
        {
          "internalType": "string",
          "name": "_description",
          "type": "string"
        }
      ],
      "name": "addSurgery",
      "outputs": [],
      "stateMutability": "nonpayable",
      "type": "function"
    },
    {
      "inputs": [
        {
          "internalType": "string",
          "name": "_id",
          "type": "string"
        },
        {
          "internalType": "string",
          "name": "_name",
          "type": "string"
        },
        {
          "internalType": "uint256",
          "name": "_age",
          "type": "uint256"
        },
        {
          "internalType": "uint256",
          "name": "_weight",
          "type": "uint256"
        },
        {
          "internalType": "uint256",
          "name": "_height",
          "type": "uint256"
        }
      ],
      "name": "addPatient",
      "outputs": [],
      "stateMutability": "nonpayable",
      "type": "function"
    },
    {
      "inputs": [],
      "name": "getPatients",
      "outputs": [
        {
          "components": [
            {
              "internalType": "string",
              "name": "id",
              "type": "string"
            },
            {
              "internalType": "string",
              "name": "name",
              "type": "string"
            },
            {
              "internalType": "uint256",
              "name": "age",
              "type": "uint256"
            },
            {
              "internalType": "uint256",
              "name": "weight",
              "type": "uint256"
            },
            {
              "internalType": "uint256",
              "name": "height",
              "type": "uint256"
            }
          ],
          "internalType": "struct Patients.Patient[]",
          "name": "",
          "type": "tuple[]"
        }
      ],
      "stateMutability": "view",
      "type": "function",
      "constant": true
    },
    {
      "inputs": [],
      "name": "getPatientCount",
      "outputs": [
        {
          "internalType": "uint256",
          "name": "",
          "type": "uint256"
        }
      ],
      "stateMutability": "view",
      "type": "function",
      "constant": true
    },
    {
      "inputs": [
        {
          "internalType": "string",
          "name": "_id",
          "type": "string"
        }
      ],
      "name": "getDoctor",
      "outputs": [
        {
          "internalType": "string",
          "name": "",
          "type": "string"
        },
        {
          "internalType": "string",
          "name": "",
          "type": "string"
        },
        {
          "internalType": "uint256",
          "name": "",
          "type": "uint256"
        },
        {
          "internalType": "uint256",
          "name": "",
          "type": "uint256"
        },
        {
          "internalType": "uint256",
          "name": "",
          "type": "uint256"
        }
      ],
      "stateMutability": "view",
      "type": "function",
      "constant": true
    },
    {
      "inputs": [
        {
          "internalType": "string",
          "name": "_id",
          "type": "string"
        }
      ],
      "name": "getSurgery",
      "outputs": [
        {
          "internalType": "string",
          "name": "",
          "type": "string"
        },
        {
          "internalType": "string",
          "name": "",
          "type": "string"
        },
        {
          "internalType": "string",
          "name": "",
          "type": "string"
        },
        {
          "internalType": "string",
          "name": "",
          "type": "string"
        }
      ],
      "stateMutability": "view",
      "type": "function",
      "constant": true
    },
    {
      "inputs": [
        {
          "internalType": "string",
          "name": "_id",
          "type": "string"
        }
      ],
      "name": "getPatient",
      "outputs": [
        {
          "internalType": "string",
          "name": "",
          "type": "string"
        },
        {
          "internalType": "string",
          "name": "",
          "type": "string"
        },
        {
          "internalType": "uint256",
          "name": "",
          "type": "uint256"
        },
        {
          "internalType": "uint256",
          "name": "",
          "type": "uint256"
        },
        {
          "internalType": "uint256",
          "name": "",
          "type": "uint256"
        }
      ],
      "stateMutability": "view",
      "type": "function",
      "constant": true
    }
  ],
  "bytecode": "0x60806040525f6003555f6004555f60055534801561001b575f80fd5b5061268a806100295f395ff3fe608060405234801561000f575f80fd5b50600436106100f3575f3560e01c806393119a8311610095578063be21602811610064578063be2160281461027d578063c190665b146102b0578063e6d892dc146102ce578063e79a7a2e14610301576100f3565b806393119a83146101f15780639828c40814610225578063a0303c4114610241578063b13d5d941461025f576100f3565b806360499092116100d1578063604990921461014d57806366c74332146101815780636efb1b841461019f57806378522bc4146101d3576100f3565b806307e3d3f1146100f757806312ad1c371461011357806329418d0714610131575b5f80fd5b610111600480360381019061010c91906119a6565b610335565b005b61011b6103df565b6040516101289190611c13565b60405180910390f35b61014b60048036038101906101469190611c33565b610577565b005b61016760048036038101906101629190611d07565b61062b565b604051610178959493929190611da5565b60405180910390f35b6101896108e5565b6040516101969190611e04565b60405180910390f35b6101b960048036038101906101b49190611e1d565b6108eb565b6040516101ca959493929190611da5565b60405180910390f35b6101db610a38565b6040516101e89190611e04565b60405180910390f35b61020b60048036038101906102069190611e1d565b610a3e565b60405161021c959493929190611da5565b60405180910390f35b61023f600480360381019061023a91906119a6565b610b8a565b005b610249610c40565b6040516102569190611e04565b60405180910390f35b610267610c46565b604051610274919061201a565b60405180910390f35b61029760048036038101906102929190611d07565b610f78565b6040516102a7949392919061203a565b60405180910390f35b6102b8611318565b6040516102c59190611e04565b60405180910390f35b6102e860048036038101906102e39190611e1d565b611321565b6040516102f8949392919061203a565b60405180910390f35b61031b60048036038101906103169190611d07565b611574565b60405161032c959493929190611da5565b60405180910390f35b6001808160018154018082558091505003905f5260205f209050505f600180808054905061036391906120c6565b81548110610374576103736120f9565b5b905f5260205f2090600602019050858160010190816103939190612320565b5084815f0190816103a49190612320565b5083816002018190555082816003018190555081816004018190555060045f8154809291906103d2906123ef565b9190505550505050505050565b60605f805480602002602001604051908101604052809291908181526020015f905b8282101561056e578382905f5260205f2090600502016040518060a00160405290815f8201805461043190612153565b80601f016020809104026020016040519081016040528092919081815260200182805461045d90612153565b80156104a85780601f1061047f576101008083540402835291602001916104a8565b820191905f5260205f20905b81548152906001019060200180831161048b57829003601f168201915b505050505081526020016001820180546104c190612153565b80601f01602080910402602001604051908101604052809291908181526020018280546104ed90612153565b80156105385780601f1061050f57610100808354040283529160200191610538565b820191905f5260205f20905b81548152906001019060200180831161051b57829003601f168201915b50505050508152602001600282015481526020016003820154815260200160048201548152505081526020019060010190610401565b50505050905090565b600260018160018154018082558091505003905f5260205f209050505f6002600180805490506105a791906120c6565b815481106105b8576105b76120f9565b5b905f5260205f209060040201905084815f0190816105d69190612320565b50828160010190816105e89190612320565b50838160020190816105fa9190612320565b508181600301908161060c9190612320565b5060055f81548092919061061f906123ef565b91905055505050505050565b6060805f805f805f90505b6001805490508110156108a057866040516020016106549190612470565b604051602081830303815290604052805190602001206001828154811061067e5761067d6120f9565b5b905f5260205f20906006020160010160405160200161069d9190612506565b604051602081830303815290604052805190602001200361088d57600181815481106106cc576106cb6120f9565b5b905f5260205f209060060201600101600182815481106106ef576106ee6120f9565b5b905f5260205f2090600602015f0160018381548110610711576107106120f9565b5b905f5260205f2090600602016002015460018481548110610735576107346120f9565b5b905f5260205f2090600602016003015460018581548110610759576107586120f9565b5b905f5260205f2090600602016004015484805461077590612153565b80601f01602080910402602001604051908101604052809291908181526020018280546107a190612153565b80156107ec5780601f106107c3576101008083540402835291602001916107ec565b820191905f5260205f20905b8154815290600101906020018083116107cf57829003601f168201915b505050505094508380546107ff90612153565b80601f016020809104026020016040519081016040528092919081815260200182805461082b90612153565b80156108765780601f1061084d57610100808354040283529160200191610876565b820191905f5260205f20905b81548152906001019060200180831161085957829003601f168201915b5050505050935095509550955095509550506108dc565b8080610898906123ef565b915050610636565b506040517f08c379a00000000000000000000000000000000000000000000000000000000081526004016108d390612566565b60405180910390fd5b91939590929450565b60055481565b600181815481106108fa575f80fd5b905f5260205f2090600602015f91509050805f01805461091990612153565b80601f016020809104026020016040519081016040528092919081815260200182805461094590612153565b80156109905780601f1061096757610100808354040283529160200191610990565b820191905f5260205f20905b81548152906001019060200180831161097357829003601f168201915b5050505050908060010180546109a590612153565b80601f01602080910402602001604051908101604052809291908181526020018280546109d190612153565b8015610a1c5780601f106109f357610100808354040283529160200191610a1c565b820191905f5260205f20905b8154815290600101906020018083116109ff57829003601f168201915b5050505050908060020154908060030154908060040154905085565b60045481565b5f8181548110610a4c575f80fd5b905f5260205f2090600502015f91509050805f018054610a6b90612153565b80601f0160208091040260200160405190810160405280929190818152602001828054610a9790612153565b8015610ae25780601f10610ab957610100808354040283529160200191610ae2565b820191905f5260205f20905b815481529060010190602001808311610ac557829003601f168201915b505050505090806001018054610af790612153565b80601f0160208091040260200160405190810160405280929190818152602001828054610b2390612153565b8015610b6e5780601f10610b4557610100808354040283529160200191610b6e565b820191905f5260205f20905b815481529060010190602001808311610b5157829003601f168201915b5050505050908060020154908060030154908060040154905085565b5f6040518060a0016040528087815260200186815260200185815260200184815260200183815250908060018154018082558091505060019003905f5260205f2090600502015f909190919091505f820151815f019081610beb9190612320565b506020820151816001019081610c019190612320565b50604082015181600201556060820151816003015560808201518160040155505060035f815480929190610c34906123ef565b91905055505050505050565b60035481565b60606001805480602002602001604051908101604052809291908181526020015f905b82821015610f6f578382905f5260205f2090600602016040518060c00160405290815f82018054610c9990612153565b80601f0160208091040260200160405190810160405280929190818152602001828054610cc590612153565b8015610d105780601f10610ce757610100808354040283529160200191610d10565b820191905f5260205f20905b815481529060010190602001808311610cf357829003601f168201915b50505050508152602001600182018054610d2990612153565b80601f0160208091040260200160405190810160405280929190818152602001828054610d5590612153565b8015610da05780601f10610d7757610100808354040283529160200191610da0565b820191905f5260205f20905b815481529060010190602001808311610d8357829003601f168201915b5050505050815260200160028201548152602001600382015481526020016004820154815260200160058201805480602002602001604051908101604052809291908181526020015f905b82821015610f58578382905f5260205f2090600502016040518060a00160405290815f82018054610e1b90612153565b80601f0160208091040260200160405190810160405280929190818152602001828054610e4790612153565b8015610e925780601f10610e6957610100808354040283529160200191610e92565b820191905f5260205f20905b815481529060010190602001808311610e7557829003601f168201915b50505050508152602001600182018054610eab90612153565b80601f0160208091040260200160405190810160405280929190818152602001828054610ed790612153565b8015610f225780601f10610ef957610100808354040283529160200191610f22565b820191905f5260205f20905b815481529060010190602001808311610f0557829003601f168201915b50505050508152602001600282015481526020016003820154815260200160048201548152505081526020019060010190610deb565b505050508152505081526020019060010190610c69565b50505050905090565b6060806060805f5b6002805490508110156112d55785604051602001610f9e9190612470565b6040516020818303038152906040528051906020012060028281548110610fc857610fc76120f9565b5b905f5260205f2090600402015f01604051602001610fe69190612506565b60405160208183030381529060405280519060200120036112c25760028181548110611015576110146120f9565b5b905f5260205f2090600402015f0160028281548110611037576110366120f9565b5b905f5260205f2090600402016001016002838154811061105a576110596120f9565b5b905f5260205f2090600402016002016002848154811061107d5761107c6120f9565b5b905f5260205f20906004020160030183805461109890612153565b80601f01602080910402602001604051908101604052809291908181526020018280546110c490612153565b801561110f5780601f106110e65761010080835404028352916020019161110f565b820191905f5260205f20905b8154815290600101906020018083116110f257829003601f168201915b5050505050935082805461112290612153565b80601f016020809104026020016040519081016040528092919081815260200182805461114e90612153565b80156111995780601f1061117057610100808354040283529160200191611199565b820191905f5260205f20905b81548152906001019060200180831161117c57829003601f168201915b505050505092508180546111ac90612153565b80601f01602080910402602001604051908101604052809291908181526020018280546111d890612153565b80156112235780601f106111fa57610100808354040283529160200191611223565b820191905f5260205f20905b81548152906001019060200180831161120657829003601f168201915b5050505050915080805461123690612153565b80601f016020809104026020016040519081016040528092919081815260200182805461126290612153565b80156112ad5780601f10611284576101008083540402835291602001916112ad565b820191905f5260205f20905b81548152906001019060200180831161129057829003601f168201915b50505050509050945094509450945050611311565b80806112cd906123ef565b915050610f80565b506040517f08c379a0000000000000000000000000000000000000000000000000000000008152600401611308906125ce565b60405180910390fd5b9193509193565b5f600354905090565b60028181548110611330575f80fd5b905f5260205f2090600402015f91509050805f01805461134f90612153565b80601f016020809104026020016040519081016040528092919081815260200182805461137b90612153565b80156113c65780601f1061139d576101008083540402835291602001916113c6565b820191905f5260205f20905b8154815290600101906020018083116113a957829003601f168201915b5050505050908060010180546113db90612153565b80601f016020809104026020016040519081016040528092919081815260200182805461140790612153565b80156114525780601f1061142957610100808354040283529160200191611452565b820191905f5260205f20905b81548152906001019060200180831161143557829003601f168201915b50505050509080600201805461146790612153565b80601f016020809104026020016040519081016040528092919081815260200182805461149390612153565b80156114de5780601f106114b5576101008083540402835291602001916114de565b820191905f5260205f20905b8154815290600101906020018083116114c157829003601f168201915b5050505050908060030180546114f390612153565b80601f016020809104026020016040519081016040528092919081815260200182805461151f90612153565b801561156a5780601f106115415761010080835404028352916020019161156a565b820191905f5260205f20905b81548152906001019060200180831161154d57829003601f168201915b5050505050905084565b6060805f805f805f90505b5f805490508110156117e1578660405160200161159c9190612470565b604051602081830303815290604052805190602001205f82815481106115c5576115c46120f9565b5b905f5260205f2090600502015f016040516020016115e39190612506565b60405160208183030381529060405280519060200120036117ce575f8181548110611611576116106120f9565b5b905f5260205f2090600502015f015f8281548110611632576116316120f9565b5b905f5260205f2090600502016001015f8381548110611654576116536120f9565b5b905f5260205f209060050201600201545f8481548110611677576116766120f9565b5b905f5260205f209060050201600301545f858154811061169a576116996120f9565b5b905f5260205f209060050201600401548480546116b690612153565b80601f01602080910402602001604051908101604052809291908181526020018280546116e290612153565b801561172d5780601f106117045761010080835404028352916020019161172d565b820191905f5260205f20905b81548152906001019060200180831161171057829003601f168201915b5050505050945083805461174090612153565b80601f016020809104026020016040519081016040528092919081815260200182805461176c90612153565b80156117b75780601f1061178e576101008083540402835291602001916117b7565b820191905f5260205f20905b81548152906001019060200180831161179a57829003601f168201915b50505050509350955095509550955095505061181d565b80806117d9906123ef565b91505061157f565b506040517f08c379a000000000000000000000000000000000000000000000000000000000815260040161181490612636565b60405180910390fd5b91939590929450565b5f604051905090565b5f80fd5b5f80fd5b5f80fd5b5f80fd5b5f601f19601f8301169050919050565b7f4e487b71000000000000000000000000000000000000000000000000000000005f52604160045260245ffd5b6118858261183f565b810181811067ffffffffffffffff821117156118a4576118a361184f565b5b80604052505050565b5f6118b6611826565b90506118c2828261187c565b919050565b5f67ffffffffffffffff8211156118e1576118e061184f565b5b6118ea8261183f565b9050602081019050919050565b828183375f83830152505050565b5f611917611912846118c7565b6118ad565b9050828152602081018484840111156119335761193261183b565b5b61193e8482856118f7565b509392505050565b5f82601f83011261195a57611959611837565b5b813561196a848260208601611905565b91505092915050565b5f819050919050565b61198581611973565b811461198f575f80fd5b50565b5f813590506119a08161197c565b92915050565b5f805f805f60a086880312156119bf576119be61182f565b5b5f86013567ffffffffffffffff8111156119dc576119db611833565b5b6119e888828901611946565b955050602086013567ffffffffffffffff811115611a0957611a08611833565b5b611a1588828901611946565b9450506040611a2688828901611992565b9350506060611a3788828901611992565b9250506080611a4888828901611992565b9150509295509295909350565b5f81519050919050565b5f82825260208201905092915050565b5f819050602082019050919050565b5f81519050919050565b5f82825260208201905092915050565b5f5b83811015611ab5578082015181840152602081019050611a9a565b5f8484015250505050565b5f611aca82611a7e565b611ad48185611a88565b9350611ae4818560208601611a98565b611aed8161183f565b840191505092915050565b611b0181611973565b82525050565b5f60a083015f8301518482035f860152611b218282611ac0565b91505060208301518482036020860152611b3b8282611ac0565b9150506040830151611b506040860182611af8565b506060830151611b636060860182611af8565b506080830151611b766080860182611af8565b508091505092915050565b5f611b8c8383611b07565b905092915050565b5f602082019050919050565b5f611baa82611a55565b611bb48185611a5f565b935083602082028501611bc685611a6f565b805f5b85811015611c015784840389528151611be28582611b81565b9450611bed83611b94565b925060208a01995050600181019050611bc9565b50829750879550505050505092915050565b5f6020820190508181035f830152611c2b8184611ba0565b905092915050565b5f805f8060808587031215611c4b57611c4a61182f565b5b5f85013567ffffffffffffffff811115611c6857611c67611833565b5b611c7487828801611946565b945050602085013567ffffffffffffffff811115611c9557611c94611833565b5b611ca187828801611946565b935050604085013567ffffffffffffffff811115611cc257611cc1611833565b5b611cce87828801611946565b925050606085013567ffffffffffffffff811115611cef57611cee611833565b5b611cfb87828801611946565b91505092959194509250565b5f60208284031215611d1c57611d1b61182f565b5b5f82013567ffffffffffffffff811115611d3957611d38611833565b5b611d4584828501611946565b91505092915050565b5f82825260208201905092915050565b5f611d6882611a7e565b611d728185611d4e565b9350611d82818560208601611a98565b611d8b8161183f565b840191505092915050565b611d9f81611973565b82525050565b5f60a0820190508181035f830152611dbd8188611d5e565b90508181036020830152611dd18187611d5e565b9050611de06040830186611d96565b611ded6060830185611d96565b611dfa6080830184611d96565b9695505050505050565b5f602082019050611e175f830184611d96565b92915050565b5f60208284031215611e3257611e3161182f565b5b5f611e3f84828501611992565b91505092915050565b5f81519050919050565b5f82825260208201905092915050565b5f819050602082019050919050565b5f82825260208201905092915050565b5f611e8b82611a55565b611e958185611e71565b935083602082028501611ea785611a6f565b805f5b85811015611ee25784840389528151611ec38582611b81565b9450611ece83611b94565b925060208a01995050600181019050611eaa565b50829750879550505050505092915050565b5f60c083015f8301518482035f860152611f0e8282611ac0565b91505060208301518482036020860152611f288282611ac0565b9150506040830151611f3d6040860182611af8565b506060830151611f506060860182611af8565b506080830151611f636080860182611af8565b5060a083015184820360a0860152611f7b8282611e81565b9150508091505092915050565b5f611f938383611ef4565b905092915050565b5f602082019050919050565b5f611fb182611e48565b611fbb8185611e52565b935083602082028501611fcd85611e62565b805f5b858110156120085784840389528151611fe98582611f88565b9450611ff483611f9b565b925060208a01995050600181019050611fd0565b50829750879550505050505092915050565b5f6020820190508181035f8301526120328184611fa7565b905092915050565b5f6080820190508181035f8301526120528187611d5e565b905081810360208301526120668186611d5e565b9050818103604083015261207a8185611d5e565b9050818103606083015261208e8184611d5e565b905095945050505050565b7f4e487b71000000000000000000000000000000000000000000000000000000005f52601160045260245ffd5b5f6120d082611973565b91506120db83611973565b92508282039050818111156120f3576120f2612099565b5b92915050565b7f4e487b71000000000000000000000000000000000000000000000000000000005f52603260045260245ffd5b7f4e487b71000000000000000000000000000000000000000000000000000000005f52602260045260245ffd5b5f600282049050600182168061216a57607f821691505b60208210810361217d5761217c612126565b5b50919050565b5f819050815f5260205f209050919050565b5f6020601f8301049050919050565b5f82821b905092915050565b5f600883026121df7fffffffffffffffffffffffffffffffffffffffffffffffffffffffffffffffff826121a4565b6121e986836121a4565b95508019841693508086168417925050509392505050565b5f819050919050565b5f61222461221f61221a84611973565b612201565b611973565b9050919050565b5f819050919050565b61223d8361220a565b6122516122498261222b565b8484546121b0565b825550505050565b5f90565b612265612259565b612270818484612234565b505050565b5b81811015612293576122885f8261225d565b600181019050612276565b5050565b601f8211156122d8576122a981612183565b6122b284612195565b810160208510156122c1578190505b6122d56122cd85612195565b830182612275565b50505b505050565b5f82821c905092915050565b5f6122f85f19846008026122dd565b1980831691505092915050565b5f61231083836122e9565b9150826002028217905092915050565b61232982611a7e565b67ffffffffffffffff8111156123425761234161184f565b5b61234c8254612153565b612357828285612297565b5f60209050601f831160018114612388575f8415612376578287015190505b6123808582612305565b8655506123e7565b601f19841661239686612183565b5f5b828110156123bd57848901518255600182019150602085019450602081019050612398565b868310156123da57848901516123d6601f8916826122e9565b8355505b6001600288020188555050505b505050505050565b5f6123f982611973565b91507fffffffffffffffffffffffffffffffffffffffffffffffffffffffffffffffff820361242b5761242a612099565b5b600182019050919050565b5f81905092915050565b5f61244a82611a7e565b6124548185612436565b9350612464818560208601611a98565b80840191505092915050565b5f61247b8284612440565b915081905092915050565b5f815461249281612153565b61249c8186612436565b9450600182165f81146124b657600181146124cb576124fd565b60ff19831686528115158202860193506124fd565b6124d485612183565b5f5b838110156124f5578154818901526001820191506020810190506124d6565b838801955050505b50505092915050565b5f6125118284612486565b915081905092915050565b7f446f63746f72206e6f7420666f756e64000000000000000000000000000000005f82015250565b5f612550601083611d4e565b915061255b8261251c565b602082019050919050565b5f6020820190508181035f83015261257d81612544565b9050919050565b7f53757267657279206e6f7420666f756e640000000000000000000000000000005f82015250565b5f6125b8601183611d4e565b91506125c382612584565b602082019050919050565b5f6020820190508181035f8301526125e5816125ac565b9050919050565b7f50617469656e74206e6f7420666f756e640000000000000000000000000000005f82015250565b5f612620601183611d4e565b915061262b826125ec565b602082019050919050565b5f6020820190508181035f83015261264d81612614565b905091905056fea264697066735822122067b04639ffcbecf5e12da115a884665b90ee1ac7cf9d60c309c6e83cc7aea52664736f6c63430008150033",
  "immutableReferences": {},
  "source": "// SPDX-License-Identifier: MIT\npragma solidity >=0.4.22 <0.9.0;\n\ncontract Patients {\n  struct Patient {\n    string id;\n    string name;\n    uint age;\n    uint weight;\n    uint height;\n  }\n\n  struct Surgery{\n    string id;\n    string patientId;\n    string doctorId;\n    string description;\n  }\n\n  struct Doctor {\n    string name;\n    string id;\n    uint age;\n    uint weight;\n    uint height;\n    Patient[] patients;\n  }\n\n  Patient[] public patients;\n  Doctor[] public doctors;\n  Surgery[] public surgeries;\n  uint public patientCount = 0;\n  uint public doctorCount = 0;\n  uint public surgeryCount = 0;\n\n  function addDoctor(string memory _id, string memory _name, uint _age, uint _weight, uint _height) public {\n    doctors.push(); \n    Doctor storage doctor = doctors[doctors.length - 1]; \n    doctor.id = _id;\n    doctor.name = _name;\n    doctor.age = _age;\n    doctor.weight = _weight;\n    doctor.height = _height;\n    doctorCount++;\n  }\n\n  function getDoctors() public view returns(Doctor[] memory){\n    return doctors;\n  }\n\n  function addSurgery(string memory _surgeryid, string memory _doctorid, string memory _patientid, string memory _description) public {\n    surgeries.push(); \n    Surgery storage surgery = surgeries[doctors.length - 1]; \n    surgery.id = _surgeryid;\n    surgery.patientId = _patientid;\n    surgery.doctorId = _doctorid;\n    surgery.description = _description;\n    surgeryCount++;\n  }\n\n  function addPatient(string memory _id, string memory _name, uint _age, uint _weight, uint _height) public {\n    patients.push(Patient(_id, _name, _age, _weight, _height));\n    patientCount++;\n  }\n\n  function getPatients() public view returns(Patient[] memory){\n    return patients;\n  }\n\n  function getPatientCount() public view returns(uint){\n    return patientCount;\n  }\n\n  function getDoctor(string memory _id) public view returns (string memory, string memory, uint, uint, uint) {\n        for (uint i = 0; i < doctors.length; i++) {\n            if (keccak256(abi.encodePacked(doctors[i].id)) == keccak256(abi.encodePacked(_id))) {\n                return (\n                    doctors[i].id,\n                    doctors[i].name,\n                    doctors[i].age,\n                    doctors[i].weight,\n                    doctors[i].height\n                );\n            }\n        }\n        revert(\"Doctor not found\");\n    }\n\n    function getSurgery(string memory _id) public view returns (string memory, string memory, string memory, string memory) {\n        for (uint i = 0; i < surgeries.length; i++) {\n            if (keccak256(abi.encodePacked(surgeries[i].id)) == keccak256(abi.encodePacked(_id))) {\n                return (\n                    surgeries[i].id,\n                    surgeries[i].patientId,\n                    surgeries[i].doctorId,\n                    surgeries[i].description\n                );\n            }\n        }\n        revert(\"Surgery not found\");\n    }\n\n    function getPatient(string memory _id) public view returns (string memory, string memory, uint, uint, uint) {\n        for (uint i = 0; i < patients.length; i++) {\n            if (keccak256(abi.encodePacked(patients[i].id)) == keccak256(abi.encodePacked(_id))) {\n                return (\n                    patients[i].id,\n                    patients[i].name,\n                    patients[i].age,\n                    patients[i].weight,\n                    patients[i].height\n                );\n            }\n        }\n        revert(\"Patient not found\");\n    }\n\n}\n",
  "sourcePath": "C:\\Pratham\\Academics\\BTech\\TY\\Projects\\unified-healthcare-interface\\blockchain\\contracts\\Patients.sol",
  "compiler": {
    "name": "solc",
    "version": "0.8.21+commit.d9974bed.Emscripten.clang"
  },
  "schemaVersion": "3.4.16",
  "updatedAt": "2025-02-12T07:18:00.880Z",
  "networkType": "ethereum",
  "devdoc": {
    "kind": "dev",
    "methods": {},
    "version": 1
  },
  "userdoc": {
    "kind": "user",
    "methods": {},
    "version": 1
  }
}