{
  "contractName": "TestContract2",
  "abi": [
    {
      "inputs": [
        {
          "internalType": "uint256",
          "name": "",
          "type": "uint256"
        }
      ],
      "name": "items",
      "outputs": [
        {
          "internalType": "string",
          "name": "",
          "type": "string"
        }
      ],
      "stateMutability": "view",
      "type": "function",
      "constant": true
    },
    {
      "inputs": [
        {
          "internalType": "string",
          "name": "_item",
          "type": "string"
        }
      ],
      "name": "addItem",
      "outputs": [],
      "stateMutability": "nonpayable",
      "type": "function"
    },
    {
      "inputs": [],
      "name": "getItems",
      "outputs": [
        {
          "internalType": "string[]",
          "name": "",
          "type": "string[]"
        }
      ],
      "stateMutability": "view",
      "type": "function",
      "constant": true
    },
    {
      "inputs": [],
      "name": "getItemCount",
      "outputs": [
        {
          "internalType": "uint256",
          "name": "",
          "type": "uint256"
        }
      ],
      "stateMutability": "view",
      "type": "function",
      "constant": true
    }
  ],
  "bytecode": "0x608060405234801561000f575f80fd5b506109638061001d5f395ff3fe608060405234801561000f575f80fd5b506004361061004a575f3560e01c806327e9f2941461004e578063410d59cc1461006a5780637749cf2314610088578063bfb231d2146100a6575b5f80fd5b610068600480360381019061006391906103da565b6100d6565b005b61007261010a565b60405161007f9190610556565b60405180910390f35b6100906101dd565b60405161009d919061058e565b60405180910390f35b6100c060048036038101906100bb91906105d1565b6101e8565b6040516100cd9190610644565b60405180910390f35b5f81908060018154018082558091505060019003905f5260205f20015f909190919091509081610106919061085e565b5050565b60605f805480602002602001604051908101604052809291908181526020015f905b828210156101d4578382905f5260205f2001805461014990610691565b80601f016020809104026020016040519081016040528092919081815260200182805461017590610691565b80156101c05780601f10610197576101008083540402835291602001916101c0565b820191905f5260205f20905b8154815290600101906020018083116101a357829003601f168201915b50505050508152602001906001019061012c565b50505050905090565b5f8080549050905090565b5f81815481106101f6575f80fd5b905f5260205f20015f91509050805461020e90610691565b80601f016020809104026020016040519081016040528092919081815260200182805461023a90610691565b80156102855780601f1061025c57610100808354040283529160200191610285565b820191905f5260205f20905b81548152906001019060200180831161026857829003601f168201915b505050505081565b5f604051905090565b5f80fd5b5f80fd5b5f80fd5b5f80fd5b5f601f19601f8301169050919050565b7f4e487b71000000000000000000000000000000000000000000000000000000005f52604160045260245ffd5b6102ec826102a6565b810181811067ffffffffffffffff8211171561030b5761030a6102b6565b5b80604052505050565b5f61031d61028d565b905061032982826102e3565b919050565b5f67ffffffffffffffff821115610348576103476102b6565b5b610351826102a6565b9050602081019050919050565b828183375f83830152505050565b5f61037e6103798461032e565b610314565b90508281526020810184848401111561039a576103996102a2565b5b6103a584828561035e565b509392505050565b5f82601f8301126103c1576103c061029e565b5b81356103d184826020860161036c565b91505092915050565b5f602082840312156103ef576103ee610296565b5b5f82013567ffffffffffffffff81111561040c5761040b61029a565b5b610418848285016103ad565b91505092915050565b5f81519050919050565b5f82825260208201905092915050565b5f819050602082019050919050565b5f81519050919050565b5f82825260208201905092915050565b5f5b83811015610481578082015181840152602081019050610466565b5f8484015250505050565b5f6104968261044a565b6104a08185610454565b93506104b0818560208601610464565b6104b9816102a6565b840191505092915050565b5f6104cf838361048c565b905092915050565b5f602082019050919050565b5f6104ed82610421565b6104f7818561042b565b9350836020820285016105098561043b565b805f5b85811015610544578484038952815161052585826104c4565b9450610530836104d7565b925060208a0199505060018101905061050c565b50829750879550505050505092915050565b5f6020820190508181035f83015261056e81846104e3565b905092915050565b5f819050919050565b61058881610576565b82525050565b5f6020820190506105a15f83018461057f565b92915050565b6105b081610576565b81146105ba575f80fd5b50565b5f813590506105cb816105a7565b92915050565b5f602082840312156105e6576105e5610296565b5b5f6105f3848285016105bd565b91505092915050565b5f82825260208201905092915050565b5f6106168261044a565b61062081856105fc565b9350610630818560208601610464565b610639816102a6565b840191505092915050565b5f6020820190508181035f83015261065c818461060c565b905092915050565b7f4e487b71000000000000000000000000000000000000000000000000000000005f52602260045260245ffd5b5f60028204905060018216806106a857607f821691505b6020821081036106bb576106ba610664565b5b50919050565b5f819050815f5260205f209050919050565b5f6020601f8301049050919050565b5f82821b905092915050565b5f6008830261071d7fffffffffffffffffffffffffffffffffffffffffffffffffffffffffffffffff826106e2565b61072786836106e2565b95508019841693508086168417925050509392505050565b5f819050919050565b5f61076261075d61075884610576565b61073f565b610576565b9050919050565b5f819050919050565b61077b83610748565b61078f61078782610769565b8484546106ee565b825550505050565b5f90565b6107a3610797565b6107ae818484610772565b505050565b5b818110156107d1576107c65f8261079b565b6001810190506107b4565b5050565b601f821115610816576107e7816106c1565b6107f0846106d3565b810160208510156107ff578190505b61081361080b856106d3565b8301826107b3565b50505b505050565b5f82821c905092915050565b5f6108365f198460080261081b565b1980831691505092915050565b5f61084e8383610827565b9150826002028217905092915050565b6108678261044a565b67ffffffffffffffff8111156108805761087f6102b6565b5b61088a8254610691565b6108958282856107d5565b5f60209050601f8311600181146108c6575f84156108b4578287015190505b6108be8582610843565b865550610925565b601f1984166108d4866106c1565b5f5b828110156108fb578489015182556001820191506020850194506020810190506108d6565b868310156109185784890151610914601f891682610827565b8355505b6001600288020188555050505b50505050505056fea2646970667358221220f65b1a62de2b1aad2a18d5a7bdab3e5433719add9a9f204f113625351c4e266364736f6c63430008150033",
  "immutableReferences": {},
  "source": "// SPDX-License-Identifier: MIT\npragma solidity >=0.4.22 <0.9.0;\n\ncontract TestContract2 {\n  string[] public items;\n\n  function addItem(string memory _item) public{\n    items.push(_item);\n  }\n\n  function getItems() public view returns(string[] memory){\n    return items;\n  }\n\n  function getItemCount() public view returns(uint){\n    return items.length;\n  }\n}\n",
  "sourcePath": "C:\\Pratham\\Academics\\BTech\\TY\\Projects\\unified-healthcare-interface\\blockchain\\contracts\\TestContract2.sol",
  "compiler": {
    "name": "solc",
    "version": "0.8.21+commit.d9974bed.Emscripten.clang"
  },
  "schemaVersion": "3.4.16",
  "updatedAt": "2025-02-12T07:18:00.664Z",
  "networkType": "ethereum",
  "devdoc": {
    "kind": "dev",
    "methods": {},
    "version": 1
  },
  "userdoc": {
    "kind": "user",
    "methods": {},
    "version": 1
  }
}